:100000000C9434000C9451000C9451000C94510049
:100010000C9451000C9451000C9451000C9451001C
:100020000C9451000C9451000C9451000C9451000C
:100030000C9451000C9451000C9451000C945100FC
:100040000C9451000C9451000C9451000C945100EC
:100050000C9451000C9451000C9451000C945100DC
:100060000C9451000C94510011241FBECFEFD8E026
:10007000DEBFCDBF11E0A0E0B1E0EEE2FAE002C0E9
:1000800005900D92A233B107D9F711E0A2E3B1E0D8
:1000900001C01D92A735B107E1F70E940A010C9437
:1000A00015050C94000088E799E6909389008093E9
:1000B00088008CEA9DE090938B0080938A000895DD
:1000C00084E79EE0909389008093880080E596E421
:1000D00090938B0080938A00089588B1807F85601B
:1000E00088B988EA91E6909389008093880088E92E
:1000F0009AE390938B0080938A00089588B1807F63
:100100008A6088B988EA91E6909389008093880094
:1001100088E99AE390938B0080938A000895109267
:1001200089001092880010928B0010928A00089526
:10013000189917C087EE93E00197F1F700C000000F
:1001400018990FC088E2EFE8F1E03197F1F700C0AD
:100150000000189907C08150B1F71899FECF81E0CF
:100160000895089580E008950E949800882331F151
:100170001899FECF189BFECF28E180E090E0EBEDD0
:10018000F5E03197F1F700C00000189903C0880F1F
:10019000991F0196189B02C0880F991F1899FECFCE
:1001A000189BFECF215059F72FEF35EA4EE0215032
:1001B00030404040E1F700C0000002C080E090E025
:1001C000682F792F80E090E008959093C500809388
:1001D000C40088E18093C1008EE08093C20008953E
:1001E000E0ECF0E0908195FFFDCF8093C60008958C
:1001F0008091C6000895CF93DF93EC018881882316
:1002000031F021960E94F00089918823D9F7DF917F
:10021000CF9108958FE18AB98FEF8BB987B98EEFAF
:1002200084B981E085B988B1807F856088B982EA28
:100230008093800089E18093810080912D019091CD
:100240002E01909389008093880090938B00809377
:100250008A0080E593EC90938700809386000E944B
:100260008F0083E390E00E94E5000F2EF4E68F2ECE
:10027000F0E09F2EF0E0AF2EF0E0BF2EF02D0F2E1D
:10028000F9E36F2EF1E07F2EF02D0F2EFBE14F2EC4
:10029000F1E05F2EF02D0F2EF4E12F2EF1E03F2E36
:1002A000F02D0E94B400DC01CB016C017D01809334
:1002B000320190933301A0933401B093350100973C
:1002C000A105B10571F3BC01CD01A50194010E9406
:1002D0001C02C62FD72F182F092F22E5C21620E89F
:1002E000D20620E0E20620E0F20689F40E946000D7
:1002F00080E091E00E94FB008FEF94E3ACE081503E
:100300009040A040E1F700C000000E948F00809163
:10031000320190913301A0913401B09135018337BE
:1003200020E8920720E0A20720E0B20789F40E94AB
:100330006D0087E091E00E94FB008FEF94E3ACE05A
:1003400081509040A040E1F700C000000E948F0063
:100350008091320190913301A0913401B091350127
:100360008A3520E8920720E0A20720E0B20789F44E
:100370000E947E008EE091E00E94FB008FEF94E3EC
:10038000ACE081509040A040E1F700C000000E9426
:100390008F008091320190913301A0913401B0918E
:1003A0003501873720E8920720E0A20720E0B20756
:1003B00081F40E945300C1010E94FB008FEF94E37F
:1003C000ACE081509040A040E1F700C000000E94E6
:1003D0008F00ADB7BEB71C970FB6F894BEBF0FBE67
:1003E000ADBFEDB7FEB7319612967C926E92119723
:1003F000538242828091320190913301A091340165
:10040000B091350180529048A040B04084839583DC
:10041000A683B783C087D187128703870E943E02D5
:100420008DB79EB70C960FB6F8949EBF0FBE8DBFCA
:10043000C3010E94FB0035CFA1E21A2EAA1BBB1BF1
:10044000FD010DC0AA1FBB1FEE1FFF1FA217B307A0
:10045000E407F50720F0A21BB30BE40BF50B661FB6
:10046000771F881F991F1A9469F76095709580957A
:1004700090959B01AC01BD01CF010895AEE0B0E0C5
:10048000E4E4F2E00C94EC040D891E8986E08C8390
:100490001A8309838FEF9FE79E838D83AE01475EAA
:1004A0005F4FCE0101966F89788D0E946002EF81C7
:1004B000F885E00FF11F10822E96E4E00C940805F9
:1004C000ADE0B0E0E6E6F2E00C94DE043C017D87AE
:1004D0006C875A01FC0117821682838181FFC8C193
:1004E0002E010894411C511CF3019381EC85FD857C
:1004F00093FD859193FF8191FD87EC87882309F413
:10050000B3C1853241F493FD859193FF8191FD87BD
:10051000EC87853229F490E0B3010E945404E4CFC3
:10052000FF24EE2410E01032B0F48B3269F08C32EC
:1005300028F4803251F0833271F40BC08D3239F0DF
:10054000803349F411602CC01260146029C0186017
:1005500027C0106125C017FD2EC0282F20532A3038
:1005600098F416FF08C08F2D880FF82EFF0CFF0C93
:10057000F80EF20E15C08E2D880FE82EEE0CEE0C44
:10058000E80EE20E10620CC08E3221F416FD6CC132
:10059000106406C08C3611F4106802C0883659F415
:1005A000EC85FD8593FD859193FF8191FD87EC8717
:1005B000882309F0B8CF982F9554933018F09052B3
:1005C000933038F424E030E0A20EB31E3FE33983C9
:1005D0000FC0833631F0833781F0833509F05AC07C
:1005E00022C0F5018081898322E030E0A20EB31E93
:1005F00021E0C22ED12C420114C092E0292E312CD0
:100600002A0C3B1CF5018080918016FF03C06F2DE2
:1006100070E002C06FEF7FEFC4010E9449046C01DB
:1006200051011F7715C082E0282E312C2A0C3B1C6B
:10063000F5018080918016FF03C06F2D70E002C02D
:100640006FEF7FEFC4010E943E046C0110685101FE
:1006500013FD1CC006C080E290E0B3010E94540468
:10066000EA948E2D90E0C816D906A8F30FC0F401C5
:1006700017FD859117FF81914F0190E0B3010E9412
:100680005404E110EA940894C108D108C114D104BB
:1006900071F7E7C0843611F0893651F5F50117FF7F
:1006A00007C080819181A281B38124E030E008C03D
:1006B00080819181AA2797FDA095BA2F22E030E092
:1006C000A20EB31E012F0F76B7FF08C0B095A095FC
:1006D000909581959F4FAF4FBF4F0068BC01CD01F2
:1006E000A2012AE030E00E948004D82ED4183FC036
:1006F000853721F41F7E2AE030E020C0197F8F3635
:10070000A9F0803720F4883509F0AEC00BC08037DF
:1007100021F0883709F0A8C001C0106114FF09C09A
:10072000146007C014FF08C0166006C028E030E05F
:1007300005C020E130E002C020E132E0F50117FF02
:1007400007C0608171818281938144E050E006C0DE
:100750006081718180E090E042E050E0A40EB51E1F
:10076000A2010E948004D82ED418012F0F7706FF13
:1007700009C00E7FDF1430F404FF06C002FD04C080
:100780000F7E02C01D2D01C01F2D802F90E004FFA1
:100790000CC0FE01ED0DF11D2081203311F4097E06
:1007A00009C002FF06C01E5F05C0867890700097E2
:1007B00009F01F5F802E992403FD12C000FF0DC0B9
:1007C000FD2C1E1550F4FE0CF11A1E2D06C080E201
:1007D00090E0B3010E9454041F5F1E15C0F304C0D3
:1007E0001E1510F4E11A01C0EE2484FE0FC080E350
:1007F00090E0B3010E94540482FE1FC081FE03C03A
:1008000088E590E010C088E790E00DC0C4018678CC
:100810009070009791F081FC02C080E201C08BE2F1
:1008200007FD8DE290E0B3010E94540406C080E30E
:1008300090E0B3010E945404FA94DF14C0F3DA94F8
:10084000F201ED0DF11D808190E0B3010E9454048E
:10085000DD20A9F706C080E290E0B3010E945404B5
:10086000EA94EE20C1F740CEF3018681978102C061
:100870008FEF9FEF2D96E2E10C94FA04FC010590B6
:10088000615070400110D8F7809590958E0F9F1F92
:100890000895FC016150704001900110D8F78095D7
:1008A00090958E0F9F1F08950F931F93CF93DF9303
:1008B0008C01EB018B8181FF1BC082FF0DC02E815B
:1008C0003F818C819D812817390764F4E881F98183
:1008D0000193F983E88306C0E885F985802F09959F
:1008E000009731F48E819F8101969F838E8302C091
:1008F0000FEF1FEFC801DF91CF911F910F91089566
:10090000FA01AA27283051F1203181F1E8946F9340
:100910006E7F6E5F7F4F8F4F9F4FAF4FB1E03ED0E6
:10092000B4E03CD0670F781F891F9A1FA11D680F84
:10093000791F8A1F911DA11D6A0F711D811D911DB7
:10094000A11D20D009F468943F912AE0269F11242C
:100950003019305D3193DEF6CF010895462F477090
:10096000405D4193B3E00FD0C9F7F6CF462F4F70EB
:10097000405D4A3318F0495D31FD4052419302D049
:10098000A9F7EACFB4E0A6959795879577956795EF
:10099000BA95C9F700976105710508959B01AC01EF
:1009A0000A2E06945795479537952795BA95C9F716
:1009B000620F731F841F951FA01D08952F923F92F1
:1009C0004F925F926F927F928F929F92AF92BF925F
:1009D000CF92DF92EF92FF920F931F93CF93DF930B
:1009E000CDB7DEB7CA1BDB0B0FB6F894DEBF0FBE68
:1009F000CDBF09942A88398848885F846E847D84B5
:100A00008C849B84AA84B984C884DF80EE80FD80B6
:100A10000C811B81AA81B981CE0FD11D0FB6F8942C
:0E0A2000DEBF0FBECDBFED010895F894FFCFED
:100A2E00504841490D0A005449454E0D0A004C5597
:100A3E00490D0A00545241490D0A0067696120743C
:100A4E007269203A2025642C25640D0A00A08C00C2
:020A5E00000096
:00000001FF
